:100000000C9444000C9461000C9461000C94610009
:100010000C9461000C9461000C9461000C946100DC
:100020000C9461000C943C040C9461000C941F042B
:100030000C9461000C9461000C9461000C946100BC
:100040000C9461000C9461000C9461000C946100AC
:100050000C94610025030103040307030A030D0345
:1000600010031303160319031C031F035B03390357
:100070003E03430348034D0352030A06F505F80502
:10008000FB05FE050106040611241FBECFE5D8E0DE
:10009000DEBFCDBF11E0A0E6B0E0EBEEF0E102C0C4
:1000A00005900D92A431B107D9F721E0A4E1B1E0A8
:1000B00001C01D92AA3FB207E1F70E9487030C948A
:1000C000CE070C9400008BE380935E01E3E2F1E045
:1000D0008EE591E01192E817F907E1F7089588237A
:1000E000C9F180911401882329F01092140181E054
:1000F00080935F0180911B0190911C010097C9F4CE
:1001000081E090E090931C0180931B0120911901E4
:1001100030911A018091620090916300281739078D
:100120000CF4A5C010921A011092190110926401EA
:100130000895019709F09BC08091170190911801D3
:100140000196909318018093170110921601109256
:100150001501089580911B0190911C010097D9F41D
:100160008091190190911A01019690931A01809340
:1001700019012091600030916100821793070CF4FF
:1001800076C080911401811172C081E080931401C6
:10019000809363010895019709F069C020911701C8
:1001A000309118012F5F3F4F3093180120931701B2
:1001B00080911501909116010196909316018093FC
:1001C00015014091680050916900841795070CF45F
:1001D0004EC0809164009091650028173907DCF0CB
:1001E000E091640181E08E0F8093640189E8E89FCB
:1001F000812D11248295869587709CE3899FE01953
:100200001124F0E0ED5DFE4F81E0808310921A0131
:100210001092190120C08091660090916700281704
:100220003907CCF0E091640181E08E0F8093640186
:1002300089E8E89F812D11248295869587709CE33B
:10024000899FE0191124F0E0ED5DFE4F10821092BD
:100250001A011092190110921801109217011092B0
:1002600016011092150110921C0110921B010895A5
:100270001092F5011092F0011092F10181E080934B
:10028000EF011092F2010895CF93823009F4B3C0C8
:10029000833009F48DC1813009F09FC1E091F301F1
:1002A000F091F4018281CDEC8C9F812D11248695F3
:1002B000869586950E94F802FC0190E3A5E6B1E0E0
:1002C00001900D929A95E1F7E091F301F091F4011C
:1002D00082818C9F912D1124969596959695990FD4
:1002E000292F220F220F920F891B0E94F802FC0176
:1002F00090E3ABE6B1E001900D929A95E1F78BE0C7
:100300000E94F802FC0190E3A1E7B1E001900D9298
:100310009A95E1F7E091F301F091F40181818C9FCE
:10032000812D11248695869586950E94F802FC0100
:1003300090E3A7E7B1E001900D929A95E1F7E09183
:10034000F301F091F40181818C9F912D11249695F8
:1003500096959695990F292F220F220F920F891BA0
:100360000E94F802FC0190E3ADE7B1E001900D922C
:100370009A95E1F78BE00E94F802FC0190E3A3E874
:10038000B1E001900D929A95E1F7E091F301F091BF
:10039000F40180818C9F812D112486958695869508
:1003A0000E94F802FC0190E3A9E8B1E001900D92EF
:1003B0009A95E1F7E091F301F091F40180818C9F2F
:1003C000C12D1124C695C695C695CC0F9C2F990FAB
:1003D000990FC90F8C1B0E94F802FC0190E3AFE853
:1003E000B1E001900D929A95E1F780E38093F501D9
:1003F0008093F001F5C0E091F301F091F401838165
:10040000CDEC8C9F812D11248695869586950E9432
:10041000F802FC0190E3A5E6B1E001900D929A95F7
:10042000E1F7E091F301F091F40183818C9F912D2C
:100430001124969596959695990F292F220F220FA4
:10044000920F891B0E94F802FC0190E3ABE6B1E039
:1004500001900D929A95E1F78AE00E94F802FC0162
:1004600090E3A1E7B1E001900D929A95E1F7E09158
:10047000F301F091F40184818C9F812D11248695E4
:10048000869586950E94F802FC0190E3A7E7B1E00B
:1004900001900D929A95E1F7E091F301F091F4014A
:1004A00084818C9F912D1124969596959695990F00
:1004B000292F220F220F920F891B0E94F802FC01A4
:1004C00090E3ADE7B1E001900D929A95E1F78AE0F3
:1004D0000E94F802FC0190E3A3E8B1E001900D92C4
:1004E0009A95E1F7E091F301F091F40186818C9FF8
:1004F000812D11248695869586950E94F802FC012F
:1005000090E3A9E8B1E001900D929A95E1F7E091AE
:10051000F301F091F40186818C9F912D1124969521
:1005200096959695990F292F220F220F920F891BCE
:100530000E94F802FC0190E3AFE8B1E001900D9257
:100540009A95E1F7E091F301F091F40185818C9F98
:10055000812D11248695869586950E94F802FC01CE
:1005600090E3A5E9B1E001900D929A95E1F7E09151
:10057000F301F091F40185818C9FC12D1124C69562
:10058000C695C695CC0F9C2F990F990FC90F8C1B40
:100590000E94F802FC0190E3ABE9B1E001900D92FA
:1005A0009A95E1F78CE38093F5018093F00118C0F0
:1005B000E091F301F091F40187810E942803FC018E
:1005C00090E3A5E6B1E001900D929A95E1F78CE0F9
:1005D0008093F5018093F00103C081E08093EF01E7
:1005E000CF91089581E08093EF010E944401089526
:1005F00090E08C30910530F5FC01E65DFF4F0C94E6
:10060000A7068CED90E0089586ED90E0089580EDCA
:1006100090E008958AEC90E0089584EC90E00895CD
:100620008EEB90E0089588EB90E0089582EB90E0E7
:1006300008958CEA90E0089580E790E0089586E7B9
:1006400090E008958AE690E0089582EE90E00895A3
:10065000CF93C82F80E690E00E94AD064C2F50E06B
:10066000FA013197E730F10510F5EA5CFF4F0C9481
:10067000A7064EE850E0E0EAF0E021C04EE850E086
:10068000E6EAF0E01CC048E850E0E0EAF0E017C01D
:1006900042E850E0EAE9F0E012C04CE750E0E4E95B
:1006A000F0E00DC048E850E0E4E9F0E008C040EABE
:1006B00050E0FA0104C048E850E0E6EAF0E020E348
:1006C000DC0101900D922A95E1F7DC01169620E3FA
:1006D000FA0101900D922A95E1F7CF910895F894CF
:1006E0000E9451040E9432047894089580E581BBF1
:1006F0008FEF8ABB84BB1BBA18BA84B7806884BFEB
:1007000084B7806884BF86B78B7F86BF08950E94B8
:1007100063000E94CC040E9414060E9476038FE9B5
:100720009FE00197F1F700C00000E091F301F09124
:10073000F40187E1828387E38183E091F301F09103
:10074000F40182E38083E091F301F091F4018FE101
:1007500083838CE0848384E1868382E1858381E0E6
:1007600087830E94A3048FE99FE00197F1F700C0FF
:1007700000000E948F048FE99FE00197F1F700C00D
:1007800000000E94B4040E94BA049FEF27EA81E6A9
:10079000915020408040E1F700C000000E946F03AC
:1007A000C0E0D1E0809163018111109263018091DA
:1007B0005F01811110925F0180916201811110929D
:1007C000620180916101882329F110926101809179
:1007D000F0018823F9F0E091F501F0E0E81BF10960
:1007E000EB59FE4F80810E947B048091F001815083
:1007F0008093F00181110EC08091EF018F5F809393
:10080000EF010E9444018091EF018F5F8093EF011F
:100810000E94980480916001882321F21092600167
:10082000CC2319F0959AC0E002C09598CD2F0E9474
:10083000DD048D2F0E9498040E94F202B3CF1F9214
:100840000F920FB60F9211248F9380EF82BF81E039
:1008500080936201809361018F910F900FBE0F9082
:100860001F90189580EF82BF85E083BF89B78160B4
:1008700089BF1092640108951F920F920FB60F92D4
:1008800011248F939F9388EF92EC9DBD8CBD81E0E6
:10089000809360019F918F910F900FBE0F901F90DA
:1008A000189588EF92EC9DBD8CBD1FBC85E08EBD78
:1008B00089B7846089BF089590E0181619063CF442
:1008C00020E030E02F5F3F4F28173907D9F7089510
:1008D000AA9A85E08A95F1F70000AA98089585B351
:1008E0008C7F85BB0895A99885B3896085BB0895E1
:1008F000A99AA8980895CF93C82F0E947304CBBBE0
:100900000E946804CF910895CF93C82F0E946F046E
:10091000CBBB0E946804CF9108958BBB0895AB9A1E
:100920008FE30E94840408958EE30E948404089556
:10093000CF93C82F80E40E9484048C2F886B0E9480
:100940008404CF910895AD9885E08A95F1F7000071
:10095000AD9A85E08A95F1F70000AD9885E08A951B
:10096000F1F70000AD9A08950E946F041BBA0E942F
:1009700068040895CF93DF93D0E08D2F0E949804F0
:10098000CCE380E00E947B04C150D9F7DF5FD83010
:10099000A1F7DF91CF910895E5EEF1E0F093F40136
:1009A000E093F30110821182128281E083838483B9
:1009B00084E1868382E185830895E091F301F091DB
:1009C000F40180818F5F80838091F3019091F40125
:1009D0000E948806811169C0E091F301F091F40151
:1009E0001082E091F301F091F40181818F5F8183A6
:1009F0008091F3019091F4010E948806811155C005
:100A0000E091F301F091F40111828091F301909152
:100A1000F401FC0122812F5F22830E94880681114C
:100A200044C0E091F301F091F401128283818F5F61
:100A30008383278195E2299F812D1124922F981B72
:100A40009695980F96959695892F880F880F880F01
:100A5000891B281B2F5F2783CF010E9488068111E5
:100A600024C0E091F301F091F40181E0838384815B
:100A70008F5F8483CF010E948806811116C0E091A8
:100A8000F301F091F40181E0848385818F5F858398
:100A9000CF010E948806811108C0E091F301F09116
:100AA000F401158286818F5F86830895660F860F15
:100AB0000895660F680F842F880F880F860F08959A
:100AC000220F220F220F440F440F420F480F862F90
:100AD000880F840F08951F93CF93DF93EC01288D27
:100AE0004F896E898D890E946005182F4B8D6A8D04
:100AF000898D0E945905880F982F990F990F890F9A
:100B0000810FDF91CF911F9108951F93CF93DF93B2
:100B1000EC0128A14F8D6E8D8D8D0E946005182FE0
:100B20006AA189A10E945605880F982F990F990FE5
:100B3000890F810FDF91CF911F9108951F93CF935C
:100B4000DF93EC012FA14EA16DA18CA10E94600545
:100B5000182F69A588A50E945605880F982F990F10
:100B6000990F890F810FDF91CF911F910895CF9336
:100B7000DF93EC0128A94FA56EA58DA50E94600505
:100B800099A9990F292F220F220F920F890FDF9118
:100B9000CF9108951F93CF93DF93EC012DA94CA91A
:100BA0006BA98AA90E946005182F29AD48AD6FA9CD
:100BB0008EA90E946005880F982F990F990F890FB1
:100BC000810FDF91CF911F910895FC0144A563A58A
:100BD00082A50E94590590E0FC013197E730F105AC
:100BE000B0F4E35CFF4F0C94A70682EF90E0089509
:100BF00086EF90E008958AEF90E008958EEF90E000
:100C0000089582E091E0089586E091E008958AE0F9
:100C100091E008958EEE90E00895FC0144A563A54F
:100C200082A50E94590508951092610110926201F7
:100C3000109260011092630110925F01089561119A
:100C400006C0982F937081E031F080E008956370C2
:100C500081E009F080E00895623069F1683070F554
:100C600060FD06C091E08F3108F090E0892F05C04B
:100C700091E0803208F090E0892F8170089560FF44
:100C800006C091E08F3108F090E0892F05C091E017
:100C9000803208F090E0892F8170089591E08E31C4
:100CA00008F090E0892F05C091E08D3108F090E0C8
:100CB000892F817008954111F1CFF6CF98EF960FEB
:100CC0009530E8F280E00895CF93DF93C82FD62FB8
:100CD000842F622F0E941F06482F6D2F8C2F0E9499
:100CE0002C06DF91CF910895CF92EF920F930E943F
:100CF0006406882331F04C2D6E2D802F0E949906BA
:100D000002C080E090E081700F91EF90CF90089545
:100D1000CF92EF920F93FC01C080E1800281258188
:100D20004681648183810E9474060F91EF90CF9079
:100D30000895883138F46C3338F481E04C3328F06E
:100D400080E003C080E001C080E081700895EE0F74
:100D5000FF1F0590F491E02D09940F931F93CF93FB
:100D6000DF938230910510F482E090E0E091F80189
:100D7000F091F90120E030E0A0E0B0E0309719F107
:100D8000408151810281138148175907C8F08417A7
:100D9000950769F4109731F012960C9312971396F9
:100DA0001C9327C00093F8011093F90122C021156C
:100DB000310519F04217530718F49A01BD01EF01EC
:100DC000DF01F801DBCF21153105F9F0281B390BC4
:100DD0002430310580F48A819B816115710521F0F1
:100DE000FB019383828304C09093F9018093F801FF
:100DF000FE01329644C0FE01E20FF31F81939193EE
:100E000022503109398328833AC02091F60130916C
:100E1000F701232B41F42091EA003091EB0030934D
:100E2000F7012093F6012091E8003091E9002115A7
:100E3000310541F42DB73EB74091EC005091ED00E3
:100E4000241B350BE091F601F091F701E217F3074F
:100E5000A0F42E1B3F0B2817390778F0AC014E5F2A
:100E60005F4F2417350748F04E0F5F1F5093F7016F
:100E70004093F6018193919302C0E0E0F0E0CF014E
:100E8000DF91CF911F910F910895CF93DF9300973A
:100E900009F481C0FC01329713821282A091F801FB
:100EA000B091F901109781F420813181820F931F55
:100EB0002091F6013091F7012817390751F5F09389
:100EC000F701E093F60167C0ED0120E030E0CE17B6
:100ED000DF0740F44A815B819E0141155105F1F025
:100EE000EA01F5CFD383C28340815181840F951FDE
:100EF000C817D90759F488819981840F951F0296E4
:100F0000918380838A819B8193838283211531051C
:100F100029F4F093F901E093F8013DC0E901FB8366
:100F2000EA8349915991C40FD51FEC17FD0761F46D
:100F300080819181840F951F0296E90199838883AE
:100F4000828193819B838A83E0E0F0E012968D9109
:100F50009C911397009719F0FD01DC01F7CF8D915B
:100F60009C9111979D012E5F3F4F820F931F2091FF
:100F7000F6013091F7012817390769F4309729F401
:100F80001092F9011092F80102C013821282B093FC
:100F9000F701A093F601DF91CF910895F894FFCF68
:100FA0000E23003200504F52545F440000000000F6
:100FB0000000000000000000000000000000000031
:100FC00000000000000E23003B00504F52545F41D0
:100FD0000000000000000000000000000000000011
:100FE000000000000000000000000E23003500504B
:100FF0004F52545F4300000000000000000000005A
:101000000000000000000000000000000000000ED2
:101010002300330050494E5F4300000000000000F1
:1010200000000000000000000000000000000000C0
:10103000000000000E23003800504F52545F420061
:1010400000000000000000000000000000000000A0
:101050000000000000000000000D04102700000C3C
:10106000406F75747075742E766364000000000024
:101070000000000000000000000000000000000070
:101080000000000000000000000000000000000060
:101090000000000000000000000000000000000050
:1010A00000000002040024F400014061746D6567D3
:1010B000613332000000000000000000000000006A
:1010C0000000000000000000000000000000000020
:1010D0000000000000000000000000000000000010
:0B10E000000000000000000000000005
:1010EB00B80BA406960046000500FFFFFFFFFFFFAD
:1010FB00000606000000003636000000042A2A2AEB
:10110B001E003E10202010001C2222221C00002258
:10111B00BE020200629292928C00FE909090800030
:10112B00FE8282443800FE403040FE0006494929C9
:10113B001E003649494936000301790503003C4A34
:10114B00494930004745452911001814127F1000FA
:10115B0022414949360062515149460044427F4081
:10116B0040003E5149453E000000FA0120004D6F02
:10117B006E005475650057656400546875004672BF
:10118B0069005361740053756E004552524F5220E3
:04119B0033340000E9
:00000001FF
