:100000000C9431000C944E000C944E000C944E0055
:100010000C944E000C944E000C944E000C944E0028
:100020000C944E000C9460000C944E000C944E0006
:100030000C944E000C944E000C944E000C944E0008
:100040000C944E000C944E000C944E000C944E00F8
:100050000C944E00D001BB01BE01C101C401C70117
:10006000CA0111241FBECFE5D8E0DEBFCDBF10E02E
:10007000A0E6B0E0EDE1F5E002C005900D92A638F3
:10008000B107D9F720E0A6E8B0E001C01D92A23C7C
:10009000B207E1F70E9488000C9431020C94000032
:1000A00080916000882319F080EA82BB02C080E45E
:1000B00082BB9091600081E0892780936000089561
:1000C0001F920F920FB60F9211242F933F934F93CD
:1000D0005F936F937F938F939F93AF93BF93EF93B0
:1000E000FF930E94500087EF92EC9DBD8CBDFF9165
:1000F000EF91BF91AF919F918F917F916F915F91A0
:100100004F913F912F910F900FBE0F901F90189518
:1001100087EF92EC9DBD8CBD1FBC85E08EBD84E059
:1001200089BF7894FFCF8BE38093C100E6E8F0E0CD
:1001300081EC90E01192E817F907E1F70895660F56
:10014000860F0895660F680F842F880F880F860F1B
:100150000895220F220F220F440F440F420F480F21
:10016000862F880F840F08950F931F93CF93DF93EB
:10017000EC019C0128573A4F835B9A4FDE01AE5E3B
:10018000BA4F8E0109521B4FF9012081FC014081B9
:100190006C91F80180810E94A900182FDE01A75CF4
:1001A000B94FFE01E250FA4FCD53DA4F4C916081C6
:1001B00088810E94A200880F982F990F990F890FAC
:1001C000810FDF91CF911F910F9108950F931F938E
:1001D000CF93DF93EC019C01205A384F8B5D984FF1
:1001E000DE01A651B94F8E010155194FF901208149
:1001F000FC0140816C91F80180810E94A900182FB8
:10020000FE01EA52F84FC556D84F608188810E949E
:100210009F00880F982F990F990F890F810FDF91F9
:10022000CF911F910F9108950F931F93CF93DF9359
:10023000EC019C012350374F8E53974FDE01A95795
:10024000B74F8E01045B174FF9012081FC014081FB
:100250006C91F80180810E94A900182FFE01ED58D1
:10026000F64FC85CD64F608188810E949F00880F3E
:10027000982F990F990F890F810FDF91CF911F91BF
:100280000F9108950F931F93CF93DF93EC019C017F
:10029000205F344F8B52954FDE01A656B54F8E012D
:1002A000015A154FF9012081FC0140816C91F80140
:1002B00080810E94A900C55BD44F9881990F292F96
:1002C000220F220F920F890FDF91CF911F910F9173
:1002D00008950F931F93CF93DF93EC019C01295C4A
:1002E000334F8450944FDE01AF53B44F8E010A5701
:1002F000144FF9012081FC0140816C91F80180814B
:100300000E94A900182FCE018D5D924FDE01A851E9
:10031000B34FBE016355734FCE58D34FFC012081BC
:100320004C91FB01608188810E94A900880F982F61
:10033000990F990F890F810FDF91CF911F910F9125
:100340000895CF93DF93DC01AC5DB54FFC01E7511D
:10035000F64FEC01C255D64F4C91608188810E94C6
:10036000A20090E0FC013197E730F105B0F4E65DC2
:10037000FF4F0C942B0285E690E014C089E690E0D4
:1003800011C08DE690E00EC081E790E00BC085E7DC
:1003900090E008C089E790E005C08DE790E002C0DA
:1003A00081E690E0DF91CF910895611106C0982F0A
:1003B000937081E031F080E00895637081E009F08E
:1003C00080E00895982F623021F1683028F560FDB3
:1003D00005C081E09F3128F180E0089581E09032EE
:1003E00000F180E0089560FF05C081E09F31C8F012
:1003F00080E0089581E09032A0F080E0089581E0EF
:100400009E3178F080E0089581E09D3150F080E0E9
:1004100008954111F4CFF8CF88EF860F853018F397
:1004200080E00895CF93DF93C82FD62F842F622FBB
:100430000E94D501482F6D2F8C2F0E94E201DF9181
:10044000CF910895883128F481E06C3318F080E072
:10045000089580E00895EE0FFF1F0590F491E02DC0
:060460000994F894FFCF9F
:100466000E23003200504F52545F4400000000003B
:100476000000000000000000000000000000000076
:1004860000000000000D04102700000C40696E7487
:100496006572727570742D73696D2E7663640000D3
:1004A6000000000000000000000000000000000046
:1004B6000000000000000000000000000000000036
:1004C6000000000000000000000000000000000224
:1004D600040024F400014061746D656761333200E5
:1004E6000000000000000000000000000000000006
:1004F60000000000000000000000000000000000F6
:1005060000000000000000000000000000000000E5
:0705160000000000000000DE
:10051D00014D6F6E00547565005765640054687524
:10052D0000467269005361740053756E0045525256
:06053D004F522033340090
:00000001FF
