:100000000C9444000C9461000C9461000C94610009
:100010000C9461000C9461000C9461000C946100DC
:100020000C9461000C9433040C9461000C9416043D
:100030000C9461000C9461000C9461000C946100BC
:100040000C9461000C9461000C9461000C946100AC
:100050000C9461001203EE02F102F402F702FA02BC
:10006000FD0200030303060309030C0348032603F0
:100070002B03300335033A033F0322060D06100617
:100080001306160619061C0611241FBECFE5D8E07C
:10009000DEBFCDBF11E0A0E6B0E0EDEAF1E102C0C5
:1000A00005900D92A431B107D9F721E0A4E1B1E0A8
:1000B00001C01D92AA3FB207E1F70E947C030C9495
:1000C0002F080C9400008BE380935E01E3E2F1E0E3
:1000D0008EE591E01192E817F907E1F7089588237A
:1000E000C9F180911401882329F01092140181E054
:1000F00080935F0180911B0190911C010097C9F4CE
:1001000081E090E090931C0180931B0120911901E4
:1001100030911A018091620090916300281739078D
:100120000CF497C010921A011092190110926401F8
:100130000895019709F08DC08091170190911801E1
:100140000196909318018093170110921601109256
:100150001501089580911B0190911C010097D9F41D
:100160008091190190911A01019690931A01809340
:1001700019012091600030916100821793070CF4FF
:1001800068C080911401811164C081E080931401E2
:10019000809363010895019709F05BC020911701D6
:1001A000309118012F5F3F4F3093180120931701B2
:1001B00080911501909116010196909316018093FC
:1001C00015014091680050916900841795070CF45F
:1001D00040C080916400909165002817390784F031
:1001E000E091640181E08E0F80936401F0E0ED5DA9
:1001F000FE4F81E0808310921A011092190115C000
:1002000080916600909167002817390774F0E0919B
:10021000640181E08E0F80936401F0E0ED5DFE4F9C
:10022000108210921A0110921901809164018C338E
:1002300021F4109264010E942C0610921801109271
:100240001701109216011092150110921C011092C4
:100250001B0108951092F5011092F0011092F10126
:1002600081E08093EF011092F2010895CF938230E4
:1002700009F4B4C0833009F48FC1813009F0A2C100
:10028000E091F301F091F4018281CDEC8C9F812DFE
:1002900011248695869586950E94E502FC0190E3DF
:1002A000A5E6B1E001900D929A95E1F7E091F30196
:1002B000F091F40182818C9F912D11249695969551
:1002C0009695990F292F220F220F920F891B0E94BA
:1002D000E502FC0190E3ABE6B1E001900D929A9546
:1002E000E1F78BE00E94E502FC0190E3A1E7B1E0B9
:1002F00001900D929A95E1F7E091F301F091F401EC
:1003000081818C9F812D11248695869586950E94EA
:10031000E502FC0190E3A7E7B1E001900D929A9508
:10032000E1F7E091F301F091F40181818C9F912D2F
:100330001124969596959695990F292F220F220FA5
:10034000920F891B0E94E502FC0190E3ADE7B1E04A
:1003500001900D929A95E1F78BE00E94E502FC0175
:1003600090E3A3E8B1E001900D929A95E1F7E09156
:10037000F301F091F40180818C9F812D11248695E9
:10038000869586950E94E502FC0190E3A9E8B1E01C
:1003900001900D929A95E1F7E091F301F091F4014B
:1003A00080818C9FC12D1124C695C695C695CC0F12
:1003B0009C2F990F990FC90F8C1B0E94E502FC011D
:1003C00090E3AFE8B1E001900D929A95E1F780E3F8
:1003D0008093F5018093F00181E0F5C0E091F30195
:1003E000F091F4018381CDEC8C9F812D11248695B1
:1003F000869586950E94E502FC0190E3A5E6B1E0B2
:1004000001900D929A95E1F7E091F301F091F401DA
:1004100083818C9F912D1124969596959695990F91
:10042000292F220F220F920F891B0E94E502FC0147
:1004300090E3ABE6B1E001900D929A95E1F78AE086
:100440000E94E502FC0190E3A1E7B1E001900D926A
:100450009A95E1F7E091F301F091F40184818C9F8A
:10046000812D11248695869586950E94E502FC01D2
:1004700090E3A7E7B1E001900D929A95E1F7E09142
:10048000F301F091F40184818C9F912D11249695B4
:1004900096959695990F292F220F220F920F891B5F
:1004A0000E94E502FC0190E3ADE7B1E001900D92FE
:1004B0009A95E1F78AE00E94E502FC0190E3A3E847
:1004C000B1E001900D929A95E1F7E091F301F0917E
:1004D000F40186818C9F812D1124869586958695C1
:1004E0000E94E502FC0190E3A9E8B1E001900D92C1
:1004F0009A95E1F7E091F301F091F40186818C9FE8
:10050000912D1124969596959695990F292F220F46
:10051000220F920F891B0E94E502FC0190E3AFE8D5
:10052000B1E001900D929A95E1F7E091F301F0911D
:10053000F40185818C9F812D112486958695869561
:100540000E94E502FC0190E3A5E9B1E001900D9263
:100550009A95E1F7E091F301F091F40185818C9F88
:10056000C12D1124C695C695C695CC0F9C2F990F09
:10057000990FC90F8C1B0E94E502FC0190E3ABE9C7
:10058000B1E001900D929A95E1F78CE38093F5012B
:100590008093F00181E017C0E091F301F091F40144
:1005A00087810E941503FC0190E3A5E6B1E001906C
:1005B0000D929A95E1F78CE08093F5018093F0011C
:1005C00081E001C080E0CF91089590E08C309105EA
:1005D00030F5FC01E65DFF4F0C9408078CED90E0D0
:1005E000089586ED90E0089580ED90E008958AECFE
:1005F00090E0089584EC90E008958EEB90E00895EB
:1006000088EB90E0089582EB90E008958CEA90E00A
:10061000089580E790E0089586E790E008958AE6DF
:1006200090E0089582EE90E00895CF93C82F80E681
:1006300090E00E940E074C2F50E0FA013197E7300E
:10064000F10510F5EA5CFF4F0C9408074EE850E006
:10065000E0EAF0E021C04EE850E0E6EAF0E01CC03D
:1006600048E850E0E0EAF0E017C042E850E0EAE98C
:10067000F0E012C04CE750E0E4E9F0E00DC048E8DB
:1006800050E0E4E9F0E008C040EA50E0FA0104C0BC
:1006900048E850E0E6EAF0E020E3DC0101900D924A
:1006A0002A95E1F7DC01169620E3FA0101900D92FC
:1006B0002A95E1F7CF910895F8940E9448040E948A
:1006C00029047894089580E581BB8FEF8ABB84BBB1
:1006D0001BBA18BA15BA84B7806884BF84B780681B
:1006E00084BF86B78B7F86BF089581E00E94940403
:1006F00081E00E94360108950E9463000E94CF04A9
:100700000E9475060E9463038FE99FE00197F1F74D
:1007100000C00000E091F301F091F40187E18283D1
:1007200087E38183E091F301F091F40182E3808318
:10073000E091F301F091F4018FE183838CE08483F5
:1007400084E1868382E1858381E087830E94A0041F
:100750008FE99FE00197F1F700C000000E948A0432
:100760008FE99FE00197F1F700C000000E94B104FB
:100770008FE99FE00197F1F700C000000E94B704E5
:100780009FEF21EE84E0915020408040E1F700C0CF
:1007900000000E945C03809163018111109263014B
:1007A00080915F01811110925F0180916201882325
:1007B00031F01092620180B381700E946F008091CD
:1007C0006101882339F1109261018091F001882341
:1007D00009F1E091F501F0E0E81BF109EB59FE4F5A
:1007E00080810E9476048091F00181508093F00115
:1007F000811110C08091EF018F5F8093EF010E9403
:100800003601882321F08091EF010E9494048091A9
:10081000EF0182BB80916001882309F4BCCF109264
:1008200060010E94E0040E947503B5CF1F920F92F1
:100830000FB60F9211248F9380EF82BF81E08093D7
:100840006201809361018F910F900FBE0F901F90F6
:10085000189580EF82BF85E083BF89B7816089BF2B
:100860001092640108951F920F920FB60F921124F7
:100870008F939F9388EF92EC9DBD8CBD81E0809318
:1008800060019F918F910F900FBE0F901F90189550
:1008900088EF92EC9DBD8CBD1FBC85E08EBD89B7F5
:1008A000846089BF089590E0181619063CF420E092
:1008B00030E02F5F3F4F28173907D9F7089585E3B8
:1008C0008A95F1F70000AA9A85E08A95F1F7000071
:1008D000AA98089585B38C7F85BB0895A99885B3A0
:1008E000896085BB0895A99AA8980895CF93C82FC9
:1008F0000E946E04CBBB0E945F04CF910895CF93FA
:10090000C82F0E946A04CBBB0E945F04CF91089558
:100910008BBB0895AB9A8FE30E947F040895AB9A36
:100920008EE30E947F040895CF93C82F80E40E9435
:100930007F048C2F8770886B0E947F04CF9108956D
:10094000AD9885E08A95F1F70000AD9A85E08A952B
:10095000F1F70000AD9885E08A95F1F70000AD9AB7
:1009600008950E946A041BBA0E945F040895CF9301
:10097000DF93D0E08D2F0E94940485E08A95F1F7F3
:100980000000C0E0C2BB80E00E947604CF5FC034AC
:10099000C9F7DF5FD83071F7DF91CF910895E5EEA9
:1009A000F1E0F093F401E093F301108211821282DE
:1009B00081E08383848384E1868382E18583089553
:1009C000E091F301F091F40180818F5F8083809149
:1009D000F3019091F4010E94E906811169C0E09150
:1009E000F301F091F4011082E091F301F091F40130
:1009F00081818F5F81838091F3019091F4010E9446
:100A0000E906811155C0E091F301F091F4011182E2
:100A10008091F3019091F401FC0122812F5F2283E8
:100A20000E94E906811144C0E091F301F091F401C4
:100A3000128283818F5F8383278195E2299F812D95
:100A40001124922F981B9695980F96959695892F1D
:100A5000880F880F880F891B281B2F5F2783CF01E2
:100A60000E94E906811124C0E091F301F091F401A4
:100A700081E0838384818F5F8483CF010E94E906B4
:100A8000811116C0E091F301F091F40181E08483BB
:100A900085818F5F8583CF010E94E906811108C09F
:100AA000E091F301F091F401158286818F5F8683D6
:100AB0000895660F860F0895660F680F842F880FBC
:100AC000880F860F0895220F220F220F440F440F24
:100AD000420F480F862F880F840F08951F93CF93DE
:100AE000DF93EC01288D4F896E898D890E94630503
:100AF000182F4B8D6A8D898D0E945C05880F982F69
:100B0000990F990F890F810FDF91CF911F91089550
:100B10001F93CF93DF93EC0128A14F8D6E8D8D8DA8
:100B20000E946305182F6AA189A10E945905880FA8
:100B3000982F990F990F890F810FDF91CF911F91F6
:100B400008951F93CF93DF93EC012FA14EA16DA1C8
:100B50008CA10E946305182F69A588A50E945905DC
:100B6000880F982F990F990F890F810FDF91CF91DF
:100B70001F910895CF93DF93EC0128A94FA56EA58F
:100B80008DA50E94630599A9990F292F220F220F85
:100B9000920F890FDF91CF9108951F93CF93DF9329
:100BA000EC012DA94CA96BA98AA90E946305182FF5
:100BB00029AD48AD6FA98EA90E946305880F982FB3
:100BC000990F990F890F810FDF91CF911F91089590
:100BD000FC0121AD40AD67A986A90E946305880F7D
:100BE000982F990F990F890F0895FC0125A944A901
:100BF00063A982A90E9463050895FC0144A563A529
:100C000082A50E945C0590E0FC013197E730F10578
:100C1000B0F4E35CFF4F0C94080782EF90E0089576
:100C200086EF90E008958AEF90E008958EEF90E0CF
:100C3000089582E091E0089586E091E008958AE0C9
:100C400091E008958EEE90E00895FC0144A563A51F
:100C500082A50E945C050895CF93DF93C091F301B4
:100C6000D091F40183E291E00E9488058A83C091CB
:100C7000F301D091F40183E291E00E946E05898333
:100C8000E091F301F091F4011082C091F301D09151
:100C9000F40183E291E00E94A1058B83C091F301EE
:100CA000D091F40183E291E00E94BA058C83C09157
:100CB000F301D091F40183E291E00E94E8058E8374
:100CC000C091F301D091F40183E291E00E94F50517
:100CD0008D83C091F301D091F40183E291E00E94F1
:100CE00025068F83DF91CF910895109261011092B4
:100CF0006201109260011092630110925F010895E9
:100D0000611106C0982F937081E031F080E0089562
:100D1000637081E009F080E00895623069F1683025
:100D200070F560FD06C091E08F3108F090E0892FEA
:100D300005C091E0803208F090E0892F817008951D
:100D400060FF06C091E08F3108F090E0892F05C068
:100D500091E0803208F090E0892F8170089591E051
:100D60008E3108F090E0892F05C091E08D3108F0B8
:100D700090E0892F817008954111F1CFF6CF98EF5F
:100D8000960F9530E8F280E00895CF93DF93C82F57
:100D9000D62F842F622F0E948006482F6D2F8C2F14
:100DA0000E948D06DF91CF910895CF92EF920F931D
:100DB0000E94C506882331F04C2D6E2D802F0E9495
:100DC000FA0602C080E090E081700F91EF90CF9022
:100DD0000895CF92EF920F93FC01C080E1800281D1
:100DE00025814681648183810E94D5060F91EF9011
:100DF000CF900895883138F46C3338F481E04C3367
:100E000028F080E003C080E001C080E08170089598
:100E1000EE0FFF1F0590F491E02D09940F931F939F
:100E2000CF93DF938230910510F482E090E0E0915F
:100E3000F801F091F90120E030E0A0E0B0E0309757
:100E400019F1408151810281138148175907C8F077
:100E50008417950769F4109731F012960C93129746
:100E600013961C9327C00093F8011093F90122C038
:100E70002115310519F04217530718F49A01BD01E5
:100E8000EF01DF01F801DBCF21153105F9F0281B57
:100E9000390B2430310580F48A819B8161157105FD
:100EA00021F0FB019383828304C09093F901809326
:100EB000F801FE01329644C0FE01E20FF31F819358
:100EC000919322503109398328833AC02091F60149
:100ED0003091F701232B41F42091EA003091EB008F
:100EE0003093F7012093F6012091E8003091E9005A
:100EF0002115310541F42DB73EB74091EC005091DA
:100F0000ED00241B350BE091F601F091F701E2179B
:100F1000F307A0F42E1B3F0B2817390778F0AC011C
:100F20004E5F5F4F2417350748F04E0F5F1F5093F9
:100F3000F7014093F6018193919302C0E0E0F0E065
:100F4000CF01DF91CF911F910F910895CF93DF9340
:100F5000009709F481C0FC01329713821282A0919C
:100F6000F801B091F901109781F420813181820F4D
:100F7000931F2091F6013091F7012817390751F599
:100F8000F093F701E093F60167C0ED0120E030E057
:100F9000CE17DF0740F44A815B819E014115510560
:100FA000F1F0EA01F5CFD383C28340815181840FF0
:100FB000951FC817D90759F488819981840F951F07
:100FC0000296918380838A819B81938382832115FA
:100FD000310529F4F093F901E093F8013DC0E901EE
:100FE000FB83EA8349915991C40FD51FEC17FD0784
:100FF00061F480819181840F951F0296E9019983A4
:101000008883828193819B838A83E0E0F0E012965B
:101010008D919C911397009719F0FD01DC01F7CF9A
:101020008D919C9111979D012E5F3F4F820F931FD1
:101030002091F6013091F7012817390769F43097AC
:1010400029F41092F9011092F80102C01382128261
:10105000B093F701A093F601DF91CF910895F89432
:02106000FFCFC0
:101062000E23003200504F52545F44000000000033
:10107200000000000000000000000000000000006E
:1010820000000000000E23003B00504F52545F410D
:10109200000000000000000000000000000000004E
:1010A200000000000000000000000E230035005088
:1010B2004F52545F43000000000000000000000097
:1010C2000000000000000000000000000000000E10
:1010D2002300330050494E5F43000000000000002F
:1010E20000000000000000000000000000000000FE
:1010F200000000000E23003800504F52545F42009F
:1011020000000000000000000000000000000000DD
:101112000000000000000000000D04102700000C79
:10112200406F75747075742E766364000000000061
:1011320000000000000000000000000000000000AD
:10114200000000000000000000000000000000009D
:10115200000000000000000000000000000000008D
:1011620000000002040024F400014061746D656710
:1011720061333200000000000000000000000000A7
:10118200000000000000000000000000000000005D
:10119200000000000000000000000000000000004D
:0B11A200000000000000000000000042
:1011AD00B80BA406960046000500FFFFFFFFFFFFEA
:1011BD00006060000000006C6C000000205454546E
:1011CD0078007C0804040800384444443800004486
:1011DD007D4040004649494931007F090909010018
:1011ED007F4141221C007F020C427F0006494929A4
:1011FD001E003649494936000301790503003C4A72
:10120D00494930004745452911001814127F100037
:10121D0022414949360062515149460044427F40BE
:10122D0040003E5149453E000000FA0120004D6F3F
:10123D006E005475650057656400546875004672FC
:10124D0069005361740053756E004552524F522020
:04125D003334000026
:00000001FF
